{
  "transactions": [
    {
      "hash": "0x06c7614214b24634547e868534165580197b089ee38a54a7edbb8c46cf4f2678",
      "transactionType": "CALL",
      "contractName": null,
      "contractAddress": "0x7ccbcd07b1187a430edab0c17c8b7ba00458a03a",
      "function": "contribute()",
      "arguments": [],
      "transaction": {
        "from": "0x351024a4ec50612c8d1cf70cd508f77f37da53f8",
        "to": "0x7ccbcd07b1187a430edab0c17c8b7ba00458a03a",
        "gas": "0xf60e",
        "value": "0x1c6bf52634000",
        "input": "0xd7bb99ba",
        "nonce": "0x4c",
        "chainId": "0xaa36a7"
      },
      "additionalContracts": [],
      "isFixedGasLimit": false
    },
    {
      "hash": "0x8d6bb7a9db1dbc938a250480bc19dfa031f080b16f166ae96670550f017c0b1f",
      "transactionType": "CALL",
      "contractName": null,
      "contractAddress": "0x7ccbcd07b1187a430edab0c17c8b7ba00458a03a",
      "function": "flip(bool)",
      "arguments": [
        "true"
      ],
      "transaction": {
        "from": "0x351024a4ec50612c8d1cf70cd508f77f37da53f8",
        "to": "0x7ccbcd07b1187a430edab0c17c8b7ba00458a03a",
        "gas": "0xf459",
        "value": "0x0",
        "input": "0x1d263f670000000000000000000000000000000000000000000000000000000000000001",
        "nonce": "0x4d",
        "chainId": "0xaa36a7"
      },
      "additionalContracts": [],
      "isFixedGasLimit": false
    },
    {
      "hash": "0xdc6387b63b77a3698b573160edd9a358ff185eb64498a1d37be8b26e7afabae4",
      "transactionType": "CALL",
      "contractName": null,
      "contractAddress": "0x7ccbcd07b1187a430edab0c17c8b7ba00458a03a",
      "function": "addPoint()",
      "arguments": [],
      "transaction": {
        "from": "0x351024a4ec50612c8d1cf70cd508f77f37da53f8",
        "to": "0x7ccbcd07b1187a430edab0c17c8b7ba00458a03a",
        "gas": "0x7e9c",
        "value": "0x0",
        "input": "0x6bf39aaa",
        "nonce": "0x4e",
        "chainId": "0xaa36a7"
      },
      "additionalContracts": [],
      "isFixedGasLimit": false
    },
    {
      "hash": "0x1d7badc63ba2b3c8e31142c4d1fe934142d022587ac0baa515942a4424456a94",
      "transactionType": "CALL",
      "contractName": null,
      "contractAddress": "0x7ccbcd07b1187a430edab0c17c8b7ba00458a03a",
      "function": "sendPassword(bytes32)",
      "arguments": [
        "0xb68fe43f0d1a0d7aef123722670be50268e15365401c442f8806ef83b612976b"
      ],
      "transaction": {
        "from": "0x351024a4ec50612c8d1cf70cd508f77f37da53f8",
        "to": "0x7ccbcd07b1187a430edab0c17c8b7ba00458a03a",
        "gas": "0x16720",
        "value": "0x0",
        "input": "0x5c8d2c38b68fe43f0d1a0d7aef123722670be50268e15365401c442f8806ef83b612976b",
        "nonce": "0x4f",
        "chainId": "0xaa36a7"
      },
      "additionalContracts": [],
      "isFixedGasLimit": false
    }
  ],
  "receipts": [
    {
      "status": "0x1",
      "cumulativeGasUsed": "0x72e671",
      "logs": [],
      "logsBloom": "0x00000000000000000000000000000000000000000000000000000000000000000000000000000000000000000000000000000000000000000000000000000000000000000000000000000000000000000000000000000000000000000000000000000000000000000000000000000000000000000000000000000000000000000000000000000000000000000000000000000000000000000000000000000000000000000000000000000000000000000000000000000000000000000000000000000000000000000000000000000000000000000000000000000000000000000000000000000000000000000000000000000000000000000000000000000000",
      "type": "0x2",
      "transactionHash": "0x06c7614214b24634547e868534165580197b089ee38a54a7edbb8c46cf4f2678",
      "transactionIndex": "0x21",
      "blockHash": "0xfe3204724f62c54f06eb7cc7a18ec9dbc202f7326503c3968a078c4ab764e398",
      "blockNumber": "0x60fa2a",
      "gasUsed": "0xbbe8",
      "effectiveGasPrice": "0x45462f9cd",
      "from": "0x351024a4ec50612c8d1cf70cd508f77f37da53f8",
      "to": "0x7ccbcd07b1187a430edab0c17c8b7ba00458a03a",
      "contractAddress": null
    },
    {
      "status": "0x1",
      "cumulativeGasUsed": "0x73ac0d",
      "logs": [],
      "logsBloom": "0x00000000000000000000000000000000000000000000000000000000000000000000000000000000000000000000000000000000000000000000000000000000000000000000000000000000000000000000000000000000000000000000000000000000000000000000000000000000000000000000000000000000000000000000000000000000000000000000000000000000000000000000000000000000000000000000000000000000000000000000000000000000000000000000000000000000000000000000000000000000000000000000000000000000000000000000000000000000000000000000000000000000000000000000000000000000",
      "type": "0x2",
      "transactionHash": "0x8d6bb7a9db1dbc938a250480bc19dfa031f080b16f166ae96670550f017c0b1f",
      "transactionIndex": "0x22",
      "blockHash": "0xfe3204724f62c54f06eb7cc7a18ec9dbc202f7326503c3968a078c4ab764e398",
      "blockNumber": "0x60fa2a",
      "gasUsed": "0xc59c",
      "effectiveGasPrice": "0x45462f9cd",
      "from": "0x351024a4ec50612c8d1cf70cd508f77f37da53f8",
      "to": "0x7ccbcd07b1187a430edab0c17c8b7ba00458a03a",
      "contractAddress": null
    },
    {
      "status": "0x1",
      "cumulativeGasUsed": "0x7407b4",
      "logs": [],
      "logsBloom": "0x00000000000000000000000000000000000000000000000000000000000000000000000000000000000000000000000000000000000000000000000000000000000000000000000000000000000000000000000000000000000000000000000000000000000000000000000000000000000000000000000000000000000000000000000000000000000000000000000000000000000000000000000000000000000000000000000000000000000000000000000000000000000000000000000000000000000000000000000000000000000000000000000000000000000000000000000000000000000000000000000000000000000000000000000000000000",
      "type": "0x2",
      "transactionHash": "0xdc6387b63b77a3698b573160edd9a358ff185eb64498a1d37be8b26e7afabae4",
      "transactionIndex": "0x23",
      "blockHash": "0xfe3204724f62c54f06eb7cc7a18ec9dbc202f7326503c3968a078c4ab764e398",
      "blockNumber": "0x60fa2a",
      "gasUsed": "0x5ba7",
      "effectiveGasPrice": "0x45462f9cd",
      "from": "0x351024a4ec50612c8d1cf70cd508f77f37da53f8",
      "to": "0x7ccbcd07b1187a430edab0c17c8b7ba00458a03a",
      "contractAddress": null
    },
    {
      "status": "0x1",
      "cumulativeGasUsed": "0x751d48",
      "logs": [],
      "logsBloom": "0x00000000000000000000000000000000000000000000000000000000000000000000000000000000000000000000000000000000000000000000000000000000000000000000000000000000000000000000000000000000000000000000000000000000000000000000000000000000000000000000000000000000000000000000000000000000000000000000000000000000000000000000000000000000000000000000000000000000000000000000000000000000000000000000000000000000000000000000000000000000000000000000000000000000000000000000000000000000000000000000000000000000000000000000000000000000",
      "type": "0x2",
      "transactionHash": "0x1d7badc63ba2b3c8e31142c4d1fe934142d022587ac0baa515942a4424456a94",
      "transactionIndex": "0x24",
      "blockHash": "0xfe3204724f62c54f06eb7cc7a18ec9dbc202f7326503c3968a078c4ab764e398",
      "blockNumber": "0x60fa2a",
      "gasUsed": "0x11594",
      "effectiveGasPrice": "0x45462f9cd",
      "from": "0x351024a4ec50612c8d1cf70cd508f77f37da53f8",
      "to": "0x7ccbcd07b1187a430edab0c17c8b7ba00458a03a",
      "contractAddress": null
    }
  ],
  "libraries": [],
  "pending": [],
  "returns": {},
  "timestamp": 1721641778,
  "chain": 11155111,
  "commit": "863086e"
}