{
  "transactions": [
    {
      "hash": "0x0e3308af3c9aedec381c71aecc22feeffc91adb3fc430de6e80464e6979658cd",
      "transactionType": "CALL",
      "contractName": null,
      "contractAddress": "0x7ccbcd07b1187a430edab0c17c8b7ba00458a03a",
      "function": "contribute()",
      "arguments": [],
      "transaction": {
        "from": "0x351024a4ec50612c8d1cf70cd508f77f37da53f8",
        "to": "0x7ccbcd07b1187a430edab0c17c8b7ba00458a03a",
        "gas": "0xa51e",
        "value": "0x1c6bf52634000",
        "input": "0xd7bb99ba",
        "nonce": "0x50",
        "chainId": "0xaa36a7"
      },
      "additionalContracts": [],
      "isFixedGasLimit": false
    },
    {
      "hash": "0x527800214f0f2957e3c4adb5a71b76b25a9ea6b1e2959081ba08c1cf061dcb53",
      "transactionType": "CALL",
      "contractName": null,
      "contractAddress": "0x7ccbcd07b1187a430edab0c17c8b7ba00458a03a",
      "function": "flip(bool)",
      "arguments": [
        "true"
      ],
      "transaction": {
        "from": "0x351024a4ec50612c8d1cf70cd508f77f37da53f8",
        "to": "0x7ccbcd07b1187a430edab0c17c8b7ba00458a03a",
        "gas": "0xa36b",
        "value": "0x0",
        "input": "0x1d263f670000000000000000000000000000000000000000000000000000000000000001",
        "nonce": "0x51",
        "chainId": "0xaa36a7"
      },
      "additionalContracts": [],
      "isFixedGasLimit": false
    },
    {
      "hash": "0x88218c36690de47118f31db44a805127c88198fb479f16e2b03af20fbf4d7eab",
      "transactionType": "CALL",
      "contractName": null,
      "contractAddress": "0x7ccbcd07b1187a430edab0c17c8b7ba00458a03a",
      "function": "addPoint()",
      "arguments": [],
      "transaction": {
        "from": "0x351024a4ec50612c8d1cf70cd508f77f37da53f8",
        "to": "0x7ccbcd07b1187a430edab0c17c8b7ba00458a03a",
        "gas": "0x7e9c",
        "value": "0x0",
        "input": "0x6bf39aaa",
        "nonce": "0x52",
        "chainId": "0xaa36a7"
      },
      "additionalContracts": [],
      "isFixedGasLimit": false
    },
    {
      "hash": "0x8460708dc496059ef82ebaf1a5cd4f234c29be7eda657033d63d7ff3d10cc870",
      "transactionType": "CALL",
      "contractName": null,
      "contractAddress": "0x7ccbcd07b1187a430edab0c17c8b7ba00458a03a",
      "function": "sendPassword(bytes32)",
      "arguments": [
        "0xb68fe43f0d1a0d7aef123722670be50268e15365401c442f8806ef83b612976b"
      ],
      "transaction": {
        "from": "0x351024a4ec50612c8d1cf70cd508f77f37da53f8",
        "to": "0x7ccbcd07b1187a430edab0c17c8b7ba00458a03a",
        "gas": "0x8c24",
        "value": "0x0",
        "input": "0x5c8d2c38b68fe43f0d1a0d7aef123722670be50268e15365401c442f8806ef83b612976b",
        "nonce": "0x53",
        "chainId": "0xaa36a7"
      },
      "additionalContracts": [],
      "isFixedGasLimit": false
    }
  ],
  "receipts": [
    {
      "status": "0x1",
      "cumulativeGasUsed": "0x14efd3d",
      "logs": [],
      "logsBloom": "0x00000000000000000000000000000000000000000000000000000000000000000000000000000000000000000000000000000000000000000000000000000000000000000000000000000000000000000000000000000000000000000000000000000000000000000000000000000000000000000000000000000000000000000000000000000000000000000000000000000000000000000000000000000000000000000000000000000000000000000000000000000000000000000000000000000000000000000000000000000000000000000000000000000000000000000000000000000000000000000000000000000000000000000000000000000000",
      "type": "0x2",
      "transactionHash": "0x0e3308af3c9aedec381c71aecc22feeffc91adb3fc430de6e80464e6979658cd",
      "transactionIndex": "0x66",
      "blockHash": "0x00cf63f692d334e1fe90b6a0aef3863ab03df6a04ecc07ee51ae6647a2589e2a",
      "blockNumber": "0x60fa3d",
      "gasUsed": "0x791c",
      "effectiveGasPrice": "0x4ba5e1468",
      "from": "0x351024a4ec50612c8d1cf70cd508f77f37da53f8",
      "to": "0x7ccbcd07b1187a430edab0c17c8b7ba00458a03a",
      "contractAddress": null
    },
    {
      "status": "0x1",
      "cumulativeGasUsed": "0x14f800d",
      "logs": [],
      "logsBloom": "0x00000000000000000000000000000000000000000000000000000000000000000000000000000000000000000000000000000000000000000000000000000000000000000000000000000000000000000000000000000000000000000000000000000000000000000000000000000000000000000000000000000000000000000000000000000000000000000000000000000000000000000000000000000000000000000000000000000000000000000000000000000000000000000000000000000000000000000000000000000000000000000000000000000000000000000000000000000000000000000000000000000000000000000000000000000000",
      "type": "0x2",
      "transactionHash": "0x527800214f0f2957e3c4adb5a71b76b25a9ea6b1e2959081ba08c1cf061dcb53",
      "transactionIndex": "0x67",
      "blockHash": "0x00cf63f692d334e1fe90b6a0aef3863ab03df6a04ecc07ee51ae6647a2589e2a",
      "blockNumber": "0x60fa3d",
      "gasUsed": "0x82d0",
      "effectiveGasPrice": "0x4ba5e1468",
      "from": "0x351024a4ec50612c8d1cf70cd508f77f37da53f8",
      "to": "0x7ccbcd07b1187a430edab0c17c8b7ba00458a03a",
      "contractAddress": null
    },
    {
      "status": "0x1",
      "cumulativeGasUsed": "0x14fdbb4",
      "logs": [],
      "logsBloom": "0x00000000000000000000000000000000000000000000000000000000000000000000000000000000000000000000000000000000000000000000000000000000000000000000000000000000000000000000000000000000000000000000000000000000000000000000000000000000000000000000000000000000000000000000000000000000000000000000000000000000000000000000000000000000000000000000000000000000000000000000000000000000000000000000000000000000000000000000000000000000000000000000000000000000000000000000000000000000000000000000000000000000000000000000000000000000",
      "type": "0x2",
      "transactionHash": "0x88218c36690de47118f31db44a805127c88198fb479f16e2b03af20fbf4d7eab",
      "transactionIndex": "0x68",
      "blockHash": "0x00cf63f692d334e1fe90b6a0aef3863ab03df6a04ecc07ee51ae6647a2589e2a",
      "blockNumber": "0x60fa3d",
      "gasUsed": "0x5ba7",
      "effectiveGasPrice": "0x4ba5e1468",
      "from": "0x351024a4ec50612c8d1cf70cd508f77f37da53f8",
      "to": "0x7ccbcd07b1187a430edab0c17c8b7ba00458a03a",
      "contractAddress": null
    },
    {
      "status": "0x1",
      "cumulativeGasUsed": "0x1504ac3",
      "logs": [],
      "logsBloom": "0x00000000000000000000000000000000000000000000000000000000000000000000000000000000000000000000000000000000000000000000000000000000000000000000000000000000000000000000000000000000000000000000000000000000000000000000000000000000000000000000000000000000000000000000000000000000000000000000000000000000000000000000000000000000000000000000000000000000000000000000000000000000000000000000000000000000000000000000000000000000000000000000000000000000000000000000000000000000000000000000000000000000000000000000000000000000",
      "type": "0x2",
      "transactionHash": "0x8460708dc496059ef82ebaf1a5cd4f234c29be7eda657033d63d7ff3d10cc870",
      "transactionIndex": "0x69",
      "blockHash": "0x00cf63f692d334e1fe90b6a0aef3863ab03df6a04ecc07ee51ae6647a2589e2a",
      "blockNumber": "0x60fa3d",
      "gasUsed": "0x6f0f",
      "effectiveGasPrice": "0x4ba5e1468",
      "from": "0x351024a4ec50612c8d1cf70cd508f77f37da53f8",
      "to": "0x7ccbcd07b1187a430edab0c17c8b7ba00458a03a",
      "contractAddress": null
    }
  ],
  "libraries": [],
  "pending": [],
  "returns": {},
  "timestamp": 1721642053,
  "chain": 11155111,
  "commit": "863086e"
}